{
  "_format": "hh-sol-artifact-1",
  "contractName": "Web3Mint",
  "sourceName": "contracts/Web3Mint.sol",
  "abi": [
    {
      "inputs": [],
      "stateMutability": "nonpayable",
      "type": "constructor"
    },
    {
      "anonymous": false,
      "inputs": [
        {
          "indexed": true,
          "internalType": "address",
          "name": "owner",
          "type": "address"
        },
        {
          "indexed": true,
          "internalType": "address",
          "name": "approved",
          "type": "address"
        },
        {
          "indexed": true,
          "internalType": "uint256",
          "name": "tokenId",
          "type": "uint256"
        }
      ],
      "name": "Approval",
      "type": "event"
    },
    {
      "anonymous": false,
      "inputs": [
        {
          "indexed": true,
          "internalType": "address",
          "name": "owner",
          "type": "address"
        },
        {
          "indexed": true,
          "internalType": "address",
          "name": "operator",
          "type": "address"
        },
        {
          "indexed": false,
          "internalType": "bool",
          "name": "approved",
          "type": "bool"
        }
      ],
      "name": "ApprovalForAll",
      "type": "event"
    },
    {
      "anonymous": false,
      "inputs": [
        {
          "indexed": true,
          "internalType": "address",
          "name": "from",
          "type": "address"
        },
        {
          "indexed": true,
          "internalType": "address",
          "name": "to",
          "type": "address"
        },
        {
          "indexed": true,
          "internalType": "uint256",
          "name": "tokenId",
          "type": "uint256"
        }
      ],
      "name": "Transfer",
      "type": "event"
    },
    {
      "inputs": [
        {
          "internalType": "address",
          "name": "to",
          "type": "address"
        },
        {
          "internalType": "uint256",
          "name": "tokenId",
          "type": "uint256"
        }
      ],
      "name": "approve",
      "outputs": [],
      "stateMutability": "nonpayable",
      "type": "function"
    },
    {
      "inputs": [
        {
          "internalType": "address",
          "name": "owner",
          "type": "address"
        }
      ],
      "name": "balanceOf",
      "outputs": [
        {
          "internalType": "uint256",
          "name": "",
          "type": "uint256"
        }
      ],
      "stateMutability": "view",
      "type": "function"
    },
    {
      "inputs": [
        {
          "internalType": "uint256",
          "name": "tokenId",
          "type": "uint256"
        }
      ],
      "name": "getApproved",
      "outputs": [
        {
          "internalType": "address",
          "name": "",
          "type": "address"
        }
      ],
      "stateMutability": "view",
      "type": "function"
    },
    {
      "inputs": [
        {
          "internalType": "address",
          "name": "owner",
          "type": "address"
        },
        {
          "internalType": "address",
          "name": "operator",
          "type": "address"
        }
      ],
      "name": "isApprovedForAll",
      "outputs": [
        {
          "internalType": "bool",
          "name": "",
          "type": "bool"
        }
      ],
      "stateMutability": "view",
      "type": "function"
    },
    {
      "inputs": [
        {
          "internalType": "string",
          "name": "name",
          "type": "string"
        },
        {
          "internalType": "string",
          "name": "imageURI",
          "type": "string"
        }
      ],
      "name": "mintIpfsNFT",
      "outputs": [],
      "stateMutability": "nonpayable",
      "type": "function"
    },
    {
      "inputs": [],
      "name": "name",
      "outputs": [
        {
          "internalType": "string",
          "name": "",
          "type": "string"
        }
      ],
      "stateMutability": "view",
      "type": "function"
    },
    {
      "inputs": [
        {
          "internalType": "address",
          "name": "",
          "type": "address"
        }
      ],
      "name": "nftHolder",
      "outputs": [
        {
          "internalType": "uint256",
          "name": "",
          "type": "uint256"
        }
      ],
      "stateMutability": "view",
      "type": "function"
    },
    {
      "inputs": [
        {
          "internalType": "uint256",
          "name": "",
          "type": "uint256"
        }
      ],
      "name": "nftHolderAttributes",
      "outputs": [
        {
          "internalType": "string",
          "name": "name",
          "type": "string"
        },
        {
          "internalType": "string",
          "name": "imageURL",
          "type": "string"
        }
      ],
      "stateMutability": "view",
      "type": "function"
    },
    {
      "inputs": [
        {
          "internalType": "uint256",
          "name": "tokenId",
          "type": "uint256"
        }
      ],
      "name": "ownerOf",
      "outputs": [
        {
          "internalType": "address",
          "name": "",
          "type": "address"
        }
      ],
      "stateMutability": "view",
      "type": "function"
    },
    {
      "inputs": [
        {
          "internalType": "address",
          "name": "from",
          "type": "address"
        },
        {
          "internalType": "address",
          "name": "to",
          "type": "address"
        },
        {
          "internalType": "uint256",
          "name": "tokenId",
          "type": "uint256"
        }
      ],
      "name": "safeTransferFrom",
      "outputs": [],
      "stateMutability": "nonpayable",
      "type": "function"
    },
    {
      "inputs": [
        {
          "internalType": "address",
          "name": "from",
          "type": "address"
        },
        {
          "internalType": "address",
          "name": "to",
          "type": "address"
        },
        {
          "internalType": "uint256",
          "name": "tokenId",
          "type": "uint256"
        },
        {
          "internalType": "bytes",
          "name": "data",
          "type": "bytes"
        }
      ],
      "name": "safeTransferFrom",
      "outputs": [],
      "stateMutability": "nonpayable",
      "type": "function"
    },
    {
      "inputs": [
        {
          "internalType": "address",
          "name": "operator",
          "type": "address"
        },
        {
          "internalType": "bool",
          "name": "approved",
          "type": "bool"
        }
      ],
      "name": "setApprovalForAll",
      "outputs": [],
      "stateMutability": "nonpayable",
      "type": "function"
    },
    {
      "inputs": [
        {
          "internalType": "bytes4",
          "name": "interfaceId",
          "type": "bytes4"
        }
      ],
      "name": "supportsInterface",
      "outputs": [
        {
          "internalType": "bool",
          "name": "",
          "type": "bool"
        }
      ],
      "stateMutability": "view",
      "type": "function"
    },
    {
      "inputs": [],
      "name": "symbol",
      "outputs": [
        {
          "internalType": "string",
          "name": "",
          "type": "string"
        }
      ],
      "stateMutability": "view",
      "type": "function"
    },
    {
      "inputs": [
        {
          "internalType": "uint256",
          "name": "_tokenId",
          "type": "uint256"
        }
      ],
      "name": "tokenURI",
      "outputs": [
        {
          "internalType": "string",
          "name": "",
          "type": "string"
        }
      ],
      "stateMutability": "view",
      "type": "function"
    },
    {
      "inputs": [
        {
          "internalType": "address",
          "name": "from",
          "type": "address"
        },
        {
          "internalType": "address",
          "name": "to",
          "type": "address"
        },
        {
          "internalType": "uint256",
          "name": "tokenId",
          "type": "uint256"
        }
      ],
      "name": "transferFrom",
      "outputs": [],
      "stateMutability": "nonpayable",
      "type": "function"
    }
  ],
  "bytecode": "0x60806040523480156200001157600080fd5b506040518060400160405280600381526020017f4e465400000000000000000000000000000000000000000000000000000000008152506040518060400160405280600381526020017f6e66740000000000000000000000000000000000000000000000000000000000815250816000908051906020019062000096929190620001cf565b508060019080519060200190620000af929190620001cf565b505050620000fd6040518060400160405280601881526020017f54686973206973206d79204e465420636f6e74726163742e00000000000000008152506200010360201b62000cd21760201c565b620003ac565b620001a3816040516024016200011a9190620002c0565b6040516020818303038152906040527f41304fac000000000000000000000000000000000000000000000000000000007bffffffffffffffffffffffffffffffffffffffffffffffffffffffff19166020820180517bffffffffffffffffffffffffffffffffffffffffffffffffffffffff8381831617835250505050620001a660201b60201c565b50565b60008151905060006a636f6e736f6c652e6c6f679050602083016000808483855afa5050505050565b828054620001dd9062000336565b90600052602060002090601f0160209004810192826200020157600085556200024d565b82601f106200021c57805160ff19168380011785556200024d565b828001600101855582156200024d579182015b828111156200024c5782518255916020019190600101906200022f565b5b5090506200025c919062000260565b5090565b5b808211156200027b57600081600090555060010162000261565b5090565b60006200028c82620002e4565b620002988185620002ef565b9350620002aa81856020860162000300565b620002b5816200039b565b840191505092915050565b60006020820190508181036000830152620002dc81846200027f565b905092915050565b600081519050919050565b600082825260208201905092915050565b60005b838110156200032057808201518184015260208101905062000303565b8381111562000330576000848401525b50505050565b600060028204905060018216806200034f57607f821691505b602082108114156200036657620003656200036c565b5b50919050565b7f4e487b7100000000000000000000000000000000000000000000000000000000600052602260045260246000fd5b6000601f19601f8301169050919050565b61308780620003bc6000396000f3fe608060405234801561001057600080fd5b50600436106101005760003560e01c806395d89b4111610097578063c87b56dd11610066578063c87b56dd146102be578063e985e9c5146102ee578063ea3b4d1a1461031e578063eb00195d1461034e57610100565b806395d89b411461023757806398da4c9514610255578063a22cb46514610286578063b88d4fde146102a257610100565b806323b872dd116100d357806323b872dd1461019f57806342842e0e146101bb5780636352211e146101d757806370a082311461020757610100565b806301ffc9a71461010557806306fdde0314610135578063081812fc14610153578063095ea7b314610183575b600080fd5b61011f600480360381019061011a9190612003565b61036a565b60405161012c919061254f565b60405180910390f35b61013d61044c565b60405161014a919061256a565b60405180910390f35b61016d600480360381019061016891906120c1565b6104de565b60405161017a91906124e8565b60405180910390f35b61019d60048036038101906101989190611fc7565b610524565b005b6101b960048036038101906101b49190611ec1565b61063c565b005b6101d560048036038101906101d09190611ec1565b61069c565b005b6101f160048036038101906101ec91906120c1565b6106bc565b6040516101fe91906124e8565b60405180910390f35b610221600480360381019061021c9190611e5c565b61076e565b60405161022e9190612761565b60405180910390f35b61023f610826565b60405161024c919061256a565b60405180910390f35b61026f600480360381019061026a91906120c1565b6108b8565b60405161027d92919061258c565b60405180910390f35b6102a0600480360381019061029b9190611f8b565b6109ec565b005b6102bc60048036038101906102b79190611f10565b610a02565b005b6102d860048036038101906102d391906120c1565b610a64565b6040516102e5919061256a565b60405180910390f35b61030860048036038101906103039190611e85565b610b60565b604051610315919061254f565b60405180910390f35b61033860048036038101906103339190611e5c565b610bf4565b6040516103459190612761565b60405180910390f35b61036860048036038101906103639190612055565b610c0c565b005b60007f80ac58cd000000000000000000000000000000000000000000000000000000007bffffffffffffffffffffffffffffffffffffffffffffffffffffffff1916827bffffffffffffffffffffffffffffffffffffffffffffffffffffffff1916148061043557507f5b5e139f000000000000000000000000000000000000000000000000000000007bffffffffffffffffffffffffffffffffffffffffffffffffffffffff1916827bffffffffffffffffffffffffffffffffffffffffffffffffffffffff1916145b80610445575061044482610d6b565b5b9050919050565b60606000805461045b90612a26565b80601f016020809104026020016040519081016040528092919081815260200182805461048790612a26565b80156104d45780601f106104a9576101008083540402835291602001916104d4565b820191906000526020600020905b8154815290600101906020018083116104b757829003601f168201915b5050505050905090565b60006104e982610dd5565b6004600083815260200190815260200160002060009054906101000a900473ffffffffffffffffffffffffffffffffffffffff169050919050565b600061052f826106bc565b90508073ffffffffffffffffffffffffffffffffffffffff168373ffffffffffffffffffffffffffffffffffffffff1614156105a0576040517f08c379a000000000000000000000000000000000000000000000000000000000815260040161059790612721565b60405180910390fd5b8073ffffffffffffffffffffffffffffffffffffffff166105bf610e20565b73ffffffffffffffffffffffffffffffffffffffff1614806105ee57506105ed816105e8610e20565b610b60565b5b61062d576040517f08c379a0000000000000000000000000000000000000000000000000000000008152600401610624906126c1565b60405180910390fd5b6106378383610e28565b505050565b61064d610647610e20565b82610ee1565b61068c576040517f08c379a000000000000000000000000000000000000000000000000000000000815260040161068390612741565b60405180910390fd5b610697838383610f76565b505050565b6106b783838360405180602001604052806000815250610a02565b505050565b6000806002600084815260200190815260200160002060009054906101000a900473ffffffffffffffffffffffffffffffffffffffff169050600073ffffffffffffffffffffffffffffffffffffffff168173ffffffffffffffffffffffffffffffffffffffff161415610765576040517f08c379a000000000000000000000000000000000000000000000000000000000815260040161075c90612701565b60405180910390fd5b80915050919050565b60008073ffffffffffffffffffffffffffffffffffffffff168273ffffffffffffffffffffffffffffffffffffffff1614156107df576040517f08c379a00000000000000000000000000000000000000000000000000000000081526004016107d6906126a1565b60405180910390fd5b600360008373ffffffffffffffffffffffffffffffffffffffff1673ffffffffffffffffffffffffffffffffffffffff168152602001908152602001600020549050919050565b60606001805461083590612a26565b80601f016020809104026020016040519081016040528092919081815260200182805461086190612a26565b80156108ae5780601f10610883576101008083540402835291602001916108ae565b820191906000526020600020905b81548152906001019060200180831161089157829003601f168201915b5050505050905090565b60086020528060005260406000206000915090508060000180546108db90612a26565b80601f016020809104026020016040519081016040528092919081815260200182805461090790612a26565b80156109545780601f1061092957610100808354040283529160200191610954565b820191906000526020600020905b81548152906001019060200180831161093757829003601f168201915b50505050509080600101805461096990612a26565b80601f016020809104026020016040519081016040528092919081815260200182805461099590612a26565b80156109e25780601f106109b7576101008083540402835291602001916109e2565b820191906000526020600020905b8154815290600101906020018083116109c557829003601f168201915b5050505050905082565b6109fe6109f7610e20565b83836111dd565b5050565b610a13610a0d610e20565b83610ee1565b610a52576040517f08c379a0000000000000000000000000000000000000000000000000000000008152600401610a4990612741565b60405180910390fd5b610a5e8484848461134a565b50505050565b60606000610b3060078481548110610aa5577f4e487b7100000000000000000000000000000000000000000000000000000000600052603260045260246000fd5b9060005260206000209060020201600001610abf856113a6565b60078681548110610af9577f4e487b7100000000000000000000000000000000000000000000000000000000600052603260045260246000fd5b9060005260206000209060020201600101604051602001610b1c93929190612469565b604051602081830303815290604052611553565b9050600081604051602001610b4591906124c6565b60405160208183030381529060405290508092505050919050565b6000600560008473ffffffffffffffffffffffffffffffffffffffff1673ffffffffffffffffffffffffffffffffffffffff16815260200190815260200160002060008373ffffffffffffffffffffffffffffffffffffffff1673ffffffffffffffffffffffffffffffffffffffff16815260200190815260200160002060009054906101000a900460ff16905092915050565b60096020528060005260406000206000915090505481565b6000610c186006611711565b9050610c24338261171f565b600760405180604001604052808581526020018481525090806001815401808255809150506001900390600052602060002090600202016000909190919091506000820151816000019080519060200190610c80929190611c80565b506020820151816001019080519060200190610c9d929190611c80565b505050610cc3604051806060016040528060258152602001612fed60259139823361173d565b610ccd60066117dc565b505050565b610d6881604051602401610ce6919061256a565b6040516020818303038152906040527f41304fac000000000000000000000000000000000000000000000000000000007bffffffffffffffffffffffffffffffffffffffffffffffffffffffff19166020820180517bffffffffffffffffffffffffffffffffffffffffffffffffffffffff83818316178352505050506117f2565b50565b60007f01ffc9a7000000000000000000000000000000000000000000000000000000007bffffffffffffffffffffffffffffffffffffffffffffffffffffffff1916827bffffffffffffffffffffffffffffffffffffffffffffffffffffffff1916149050919050565b610dde8161181b565b610e1d576040517f08c379a0000000000000000000000000000000000000000000000000000000008152600401610e1490612701565b60405180910390fd5b50565b600033905090565b816004600083815260200190815260200160002060006101000a81548173ffffffffffffffffffffffffffffffffffffffff021916908373ffffffffffffffffffffffffffffffffffffffff160217905550808273ffffffffffffffffffffffffffffffffffffffff16610e9b836106bc565b73ffffffffffffffffffffffffffffffffffffffff167f8c5be1e5ebec7d5bd14f71427d1e84f3dd0314c0f7b2291e5b200ac8c7c3b92560405160405180910390a45050565b600080610eed836106bc565b90508073ffffffffffffffffffffffffffffffffffffffff168473ffffffffffffffffffffffffffffffffffffffff161480610f2f5750610f2e8185610b60565b5b80610f6d57508373ffffffffffffffffffffffffffffffffffffffff16610f55846104de565b73ffffffffffffffffffffffffffffffffffffffff16145b91505092915050565b8273ffffffffffffffffffffffffffffffffffffffff16610f96826106bc565b73ffffffffffffffffffffffffffffffffffffffff1614610fec576040517f08c379a0000000000000000000000000000000000000000000000000000000008152600401610fe390612621565b60405180910390fd5b600073ffffffffffffffffffffffffffffffffffffffff168273ffffffffffffffffffffffffffffffffffffffff16141561105c576040517f08c379a000000000000000000000000000000000000000000000000000000000815260040161105390612661565b60405180910390fd5b611067838383611887565b611072600082610e28565b6001600360008573ffffffffffffffffffffffffffffffffffffffff1673ffffffffffffffffffffffffffffffffffffffff16815260200190815260200160002060008282546110c2919061293c565b925050819055506001600360008473ffffffffffffffffffffffffffffffffffffffff1673ffffffffffffffffffffffffffffffffffffffff1681526020019081526020016000206000828254611119919061285b565b92505081905550816002600083815260200190815260200160002060006101000a81548173ffffffffffffffffffffffffffffffffffffffff021916908373ffffffffffffffffffffffffffffffffffffffff160217905550808273ffffffffffffffffffffffffffffffffffffffff168473ffffffffffffffffffffffffffffffffffffffff167fddf252ad1be2c89b69c2b068fc378daa952ba7f163c4a11628f55a4df523b3ef60405160405180910390a46111d883838361188c565b505050565b8173ffffffffffffffffffffffffffffffffffffffff168373ffffffffffffffffffffffffffffffffffffffff16141561124c576040517f08c379a000000000000000000000000000000000000000000000000000000000815260040161124390612681565b60405180910390fd5b80600560008573ffffffffffffffffffffffffffffffffffffffff1673ffffffffffffffffffffffffffffffffffffffff16815260200190815260200160002060008473ffffffffffffffffffffffffffffffffffffffff1673ffffffffffffffffffffffffffffffffffffffff16815260200190815260200160002060006101000a81548160ff0219169083151502179055508173ffffffffffffffffffffffffffffffffffffffff168373ffffffffffffffffffffffffffffffffffffffff167f17307eab39ab6107e8899845ad3d59bd9653f200f220920489ca2b5937696c318360405161133d919061254f565b60405180910390a3505050565b611355848484610f76565b61136184848484611891565b6113a0576040517f08c379a000000000000000000000000000000000000000000000000000000000815260040161139790612601565b60405180910390fd5b50505050565b606060008214156113ee576040518060400160405280600181526020017f3000000000000000000000000000000000000000000000000000000000000000815250905061154e565b600082905060005b6000821461142057808061140990612a89565b915050600a8261141991906128b1565b91506113f6565b60008167ffffffffffffffff811115611462577f4e487b7100000000000000000000000000000000000000000000000000000000600052604160045260246000fd5b6040519080825280601f01601f1916602001820160405280156114945781602001600182028036833780820191505090505b5090505b60008514611547576001826114ad919061293c565b9150600a856114bc9190612ad2565b60306114c8919061285b565b60f81b818381518110611504577f4e487b7100000000000000000000000000000000000000000000000000000000600052603260045260246000fd5b60200101907effffffffffffffffffffffffffffffffffffffffffffffffffffffffffffff1916908160001a905350600a8561154091906128b1565b9450611498565b8093505050505b919050565b6060600082519050600081141561157c576040518060200160405280600081525091505061170c565b6000600360028361158d919061285b565b61159791906128b1565b60046115a391906128e2565b905060006020826115b4919061285b565b67ffffffffffffffff8111156115f3577f4e487b7100000000000000000000000000000000000000000000000000000000600052604160045260246000fd5b6040519080825280601f01601f1916602001820160405280156116255781602001600182028036833780820191505090505b5090506000604051806060016040528060408152602001613012604091399050600181016020830160005b868110156116c95760038101905062ffffff818a015116603f8160121c168401518060081b905060ff603f83600c1c1686015116810190508060081b905060ff603f8360061c1686015116810190508060081b905060ff603f831686015116810190508060e01b90508084526004840193505050611650565b5060038606600181146116e357600281146116f3576116fe565b613d3d60f01b60028303526116fe565b603d60f81b60018303525b508484525050819450505050505b919050565b600081600001549050919050565b611739828260405180602001604052806000815250611a28565b5050565b6117d7838383604051602401611755939291906125c3565b6040516020818303038152906040527fe3849f79000000000000000000000000000000000000000000000000000000007bffffffffffffffffffffffffffffffffffffffffffffffffffffffff19166020820180517bffffffffffffffffffffffffffffffffffffffffffffffffffffffff83818316178352505050506117f2565b505050565b6001816000016000828254019250508190555050565b60008151905060006a636f6e736f6c652e6c6f679050602083016000808483855afa5050505050565b60008073ffffffffffffffffffffffffffffffffffffffff166002600084815260200190815260200160002060009054906101000a900473ffffffffffffffffffffffffffffffffffffffff1673ffffffffffffffffffffffffffffffffffffffff1614159050919050565b505050565b505050565b60006118b28473ffffffffffffffffffffffffffffffffffffffff16611a83565b15611a1b578373ffffffffffffffffffffffffffffffffffffffff1663150b7a026118db610e20565b8786866040518563ffffffff1660e01b81526004016118fd9493929190612503565b602060405180830381600087803b15801561191757600080fd5b505af192505050801561194857506040513d601f19601f82011682018060405250810190611945919061202c565b60015b6119cb573d8060008114611978576040519150601f19603f3d011682016040523d82523d6000602084013e61197d565b606091505b506000815114156119c3576040517f08c379a00000000000000000000000000000000000000000000000000000000081526004016119ba90612601565b60405180910390fd5b805181602001fd5b63150b7a0260e01b7bffffffffffffffffffffffffffffffffffffffffffffffffffffffff1916817bffffffffffffffffffffffffffffffffffffffffffffffffffffffff191614915050611a20565b600190505b949350505050565b611a328383611aa6565b611a3f6000848484611891565b611a7e576040517f08c379a0000000000000000000000000000000000000000000000000000000008152600401611a7590612601565b60405180910390fd5b505050565b6000808273ffffffffffffffffffffffffffffffffffffffff163b119050919050565b600073ffffffffffffffffffffffffffffffffffffffff168273ffffffffffffffffffffffffffffffffffffffff161415611b16576040517f08c379a0000000000000000000000000000000000000000000000000000000008152600401611b0d906126e1565b60405180910390fd5b611b1f8161181b565b15611b5f576040517f08c379a0000000000000000000000000000000000000000000000000000000008152600401611b5690612641565b60405180910390fd5b611b6b60008383611887565b6001600360008473ffffffffffffffffffffffffffffffffffffffff1673ffffffffffffffffffffffffffffffffffffffff1681526020019081526020016000206000828254611bbb919061285b565b92505081905550816002600083815260200190815260200160002060006101000a81548173ffffffffffffffffffffffffffffffffffffffff021916908373ffffffffffffffffffffffffffffffffffffffff160217905550808273ffffffffffffffffffffffffffffffffffffffff16600073ffffffffffffffffffffffffffffffffffffffff167fddf252ad1be2c89b69c2b068fc378daa952ba7f163c4a11628f55a4df523b3ef60405160405180910390a4611c7c6000838361188c565b5050565b828054611c8c90612a26565b90600052602060002090601f016020900481019282611cae5760008555611cf5565b82601f10611cc757805160ff1916838001178555611cf5565b82800160010185558215611cf5579182015b82811115611cf4578251825591602001919060010190611cd9565b5b509050611d029190611d06565b5090565b5b80821115611d1f576000816000905550600101611d07565b5090565b6000611d36611d31846127a1565b61277c565b905082815260208101848484011115611d4e57600080fd5b611d598482856129e4565b509392505050565b6000611d74611d6f846127d2565b61277c565b905082815260208101848484011115611d8c57600080fd5b611d978482856129e4565b509392505050565b600081359050611dae81612f90565b92915050565b600081359050611dc381612fa7565b92915050565b600081359050611dd881612fbe565b92915050565b600081519050611ded81612fbe565b92915050565b600082601f830112611e0457600080fd5b8135611e14848260208601611d23565b91505092915050565b600082601f830112611e2e57600080fd5b8135611e3e848260208601611d61565b91505092915050565b600081359050611e5681612fd5565b92915050565b600060208284031215611e6e57600080fd5b6000611e7c84828501611d9f565b91505092915050565b60008060408385031215611e9857600080fd5b6000611ea685828601611d9f565b9250506020611eb785828601611d9f565b9150509250929050565b600080600060608486031215611ed657600080fd5b6000611ee486828701611d9f565b9350506020611ef586828701611d9f565b9250506040611f0686828701611e47565b9150509250925092565b60008060008060808587031215611f2657600080fd5b6000611f3487828801611d9f565b9450506020611f4587828801611d9f565b9350506040611f5687828801611e47565b925050606085013567ffffffffffffffff811115611f7357600080fd5b611f7f87828801611df3565b91505092959194509250565b60008060408385031215611f9e57600080fd5b6000611fac85828601611d9f565b9250506020611fbd85828601611db4565b9150509250929050565b60008060408385031215611fda57600080fd5b6000611fe885828601611d9f565b9250506020611ff985828601611e47565b9150509250929050565b60006020828403121561201557600080fd5b600061202384828501611dc9565b91505092915050565b60006020828403121561203e57600080fd5b600061204c84828501611dde565b91505092915050565b6000806040838503121561206857600080fd5b600083013567ffffffffffffffff81111561208257600080fd5b61208e85828601611e1d565b925050602083013567ffffffffffffffff8111156120ab57600080fd5b6120b785828601611e1d565b9150509250929050565b6000602082840312156120d357600080fd5b60006120e184828501611e47565b91505092915050565b6120f381612970565b82525050565b61210281612982565b82525050565b600061211382612818565b61211d818561282e565b935061212d8185602086016129f3565b61213681612bbf565b840191505092915050565b600061214c82612823565b612156818561283f565b93506121668185602086016129f3565b61216f81612bbf565b840191505092915050565b600061218582612823565b61218f8185612850565b935061219f8185602086016129f3565b80840191505092915050565b600081546121b881612a26565b6121c28186612850565b945060018216600081146121dd57600181146121ee57612221565b60ff19831686528186019350612221565b6121f785612803565b60005b83811015612219578154818901526001820191506020810190506121fa565b838801955050505b50505092915050565b6000612237600b83612850565b915061224282612bd0565b600b82019050919050565b600061225a60328361283f565b915061226582612bf9565b604082019050919050565b600061227d60258361283f565b915061228882612c48565b604082019050919050565b60006122a0601c8361283f565b91506122ab82612c97565b602082019050919050565b60006122c3603283612850565b91506122ce82612cc0565b603282019050919050565b60006122e660248361283f565b91506122f182612d0f565b604082019050919050565b600061230960198361283f565b915061231482612d5e565b602082019050919050565b600061232c60298361283f565b915061233782612d87565b604082019050919050565b600061234f600283612850565b915061235a82612dd6565b600282019050919050565b6000612372603e8361283f565b915061237d82612dff565b604082019050919050565b600061239560208361283f565b91506123a082612e4e565b602082019050919050565b60006123b8600a83612850565b91506123c382612e77565b600a82019050919050565b60006123db60188361283f565b91506123e682612ea0565b602082019050919050565b60006123fe60218361283f565b915061240982612ec9565b604082019050919050565b6000612421601d83612850565b915061242c82612f18565b601d82019050919050565b6000612444602e8361283f565b915061244f82612f41565b604082019050919050565b612463816129da565b82525050565b6000612474826123ab565b915061248082866121ab565b915061248b8261222a565b9150612497828561217a565b91506124a2826122b6565b91506124ae82846121ab565b91506124b982612342565b9150819050949350505050565b60006124d182612414565b91506124dd828461217a565b915081905092915050565b60006020820190506124fd60008301846120ea565b92915050565b600060808201905061251860008301876120ea565b61252560208301866120ea565b612532604083018561245a565b81810360608301526125448184612108565b905095945050505050565b600060208201905061256460008301846120f9565b92915050565b600060208201905081810360008301526125848184612141565b905092915050565b600060408201905081810360008301526125a68185612141565b905081810360208301526125ba8184612141565b90509392505050565b600060608201905081810360008301526125dd8186612141565b90506125ec602083018561245a565b6125f960408301846120ea565b949350505050565b6000602082019050818103600083015261261a8161224d565b9050919050565b6000602082019050818103600083015261263a81612270565b9050919050565b6000602082019050818103600083015261265a81612293565b9050919050565b6000602082019050818103600083015261267a816122d9565b9050919050565b6000602082019050818103600083015261269a816122fc565b9050919050565b600060208201905081810360008301526126ba8161231f565b9050919050565b600060208201905081810360008301526126da81612365565b9050919050565b600060208201905081810360008301526126fa81612388565b9050919050565b6000602082019050818103600083015261271a816123ce565b9050919050565b6000602082019050818103600083015261273a816123f1565b9050919050565b6000602082019050818103600083015261275a81612437565b9050919050565b6000602082019050612776600083018461245a565b92915050565b6000612786612797565b90506127928282612a58565b919050565b6000604051905090565b600067ffffffffffffffff8211156127bc576127bb612b90565b5b6127c582612bbf565b9050602081019050919050565b600067ffffffffffffffff8211156127ed576127ec612b90565b5b6127f682612bbf565b9050602081019050919050565b60008190508160005260206000209050919050565b600081519050919050565b600081519050919050565b600082825260208201905092915050565b600082825260208201905092915050565b600081905092915050565b6000612866826129da565b9150612871836129da565b9250827fffffffffffffffffffffffffffffffffffffffffffffffffffffffffffffffff038211156128a6576128a5612b03565b5b828201905092915050565b60006128bc826129da565b91506128c7836129da565b9250826128d7576128d6612b32565b5b828204905092915050565b60006128ed826129da565b91506128f8836129da565b9250817fffffffffffffffffffffffffffffffffffffffffffffffffffffffffffffffff048311821515161561293157612930612b03565b5b828202905092915050565b6000612947826129da565b9150612952836129da565b92508282101561296557612964612b03565b5b828203905092915050565b600061297b826129ba565b9050919050565b60008115159050919050565b60007fffffffff0000000000000000000000000000000000000000000000000000000082169050919050565b600073ffffffffffffffffffffffffffffffffffffffff82169050919050565b6000819050919050565b82818337600083830152505050565b60005b83811015612a115780820151818401526020810190506129f6565b83811115612a20576000848401525b50505050565b60006002820490506001821680612a3e57607f821691505b60208210811415612a5257612a51612b61565b5b50919050565b612a6182612bbf565b810181811067ffffffffffffffff82111715612a8057612a7f612b90565b5b80604052505050565b6000612a94826129da565b91507fffffffffffffffffffffffffffffffffffffffffffffffffffffffffffffffff821415612ac757612ac6612b03565b5b600182019050919050565b6000612add826129da565b9150612ae8836129da565b925082612af857612af7612b32565b5b828206905092915050565b7f4e487b7100000000000000000000000000000000000000000000000000000000600052601160045260246000fd5b7f4e487b7100000000000000000000000000000000000000000000000000000000600052601260045260246000fd5b7f4e487b7100000000000000000000000000000000000000000000000000000000600052602260045260246000fd5b7f4e487b7100000000000000000000000000000000000000000000000000000000600052604160045260246000fd5b6000601f19601f8301169050919050565b7f202d2d204e465420233a20000000000000000000000000000000000000000000600082015250565b7f4552433732313a207472616e7366657220746f206e6f6e20455243373231526560008201527f63656976657220696d706c656d656e7465720000000000000000000000000000602082015250565b7f4552433732313a207472616e736665722066726f6d20696e636f72726563742060008201527f6f776e6572000000000000000000000000000000000000000000000000000000602082015250565b7f4552433732313a20746f6b656e20616c7265616479206d696e74656400000000600082015250565b7f222c20226465736372697074696f6e223a2022416e2065706963204e4654222c60008201527f2022696d616765223a2022697066733a2f2f0000000000000000000000000000602082015250565b7f4552433732313a207472616e7366657220746f20746865207a65726f2061646460008201527f7265737300000000000000000000000000000000000000000000000000000000602082015250565b7f4552433732313a20617070726f766520746f2063616c6c657200000000000000600082015250565b7f4552433732313a2061646472657373207a65726f206973206e6f74206120766160008201527f6c6964206f776e65720000000000000000000000000000000000000000000000602082015250565b7f227d000000000000000000000000000000000000000000000000000000000000600082015250565b7f4552433732313a20617070726f76652063616c6c6572206973206e6f7420746f60008201527f6b656e206f776e6572206e6f7220617070726f76656420666f7220616c6c0000602082015250565b7f4552433732313a206d696e7420746f20746865207a65726f2061646472657373600082015250565b7f7b226e616d65223a202200000000000000000000000000000000000000000000600082015250565b7f4552433732313a20696e76616c696420746f6b656e2049440000000000000000600082015250565b7f4552433732313a20617070726f76616c20746f2063757272656e74206f776e6560008201527f7200000000000000000000000000000000000000000000000000000000000000602082015250565b7f646174613a6170706c69636174696f6e2f6a736f6e3b6261736536342c000000600082015250565b7f4552433732313a2063616c6c6572206973206e6f7420746f6b656e206f776e6560008201527f72206e6f7220617070726f766564000000000000000000000000000000000000602082015250565b612f9981612970565b8114612fa457600080fd5b50565b612fb081612982565b8114612fbb57600080fd5b50565b612fc78161298e565b8114612fd257600080fd5b50565b612fde816129da565b8114612fe957600080fd5b5056fe416e204e465420772f20494420257320686173206265656e206d696e74656420746f2025734142434445464748494a4b4c4d4e4f505152535455565758595a6162636465666768696a6b6c6d6e6f707172737475767778797a303132333435363738392b2fa2646970667358221220de339b9868cd635763e60f00e36e4118428f1520822c955fb019e536c8b2e2c164736f6c63430008040033",
  "linkReferences": {},
  "deployedLinkReferences": {}
}